{
  "address": "0x7aF27A067F54B152eDDf3C9D0d85A338243C2583",
  "abi": [
    {
      "anonymous": false,
      "inputs": [
        {
          "indexed": true,
          "internalType": "address",
          "name": "previousOwner",
          "type": "address"
        },
        {
          "indexed": true,
          "internalType": "address",
          "name": "newOwner",
          "type": "address"
        }
      ],
      "name": "OwnershipTransferred",
      "type": "event"
    },
    {
      "inputs": [
        {
          "internalType": "uint256",
          "name": "amountIn",
          "type": "uint256"
        },
        {
          "internalType": "address[]",
          "name": "routers",
          "type": "address[]"
        },
        {
          "internalType": "address[]",
          "name": "path1",
          "type": "address[]"
        },
        {
          "internalType": "address[]",
          "name": "path2",
          "type": "address[]"
        }
      ],
      "name": "holyray",
      "outputs": [],
      "stateMutability": "nonpayable",
      "type": "function"
    },
    {
      "inputs": [],
      "name": "owner",
      "outputs": [
        {
          "internalType": "address",
          "name": "",
          "type": "address"
        }
      ],
      "stateMutability": "view",
      "type": "function"
    },
    {
      "inputs": [],
      "name": "renounceOwnership",
      "outputs": [],
      "stateMutability": "nonpayable",
      "type": "function"
    },
    {
      "inputs": [
        {
          "internalType": "uint256",
          "name": "_amount",
          "type": "uint256"
        }
      ],
      "name": "senseBnb",
      "outputs": [],
      "stateMutability": "nonpayable",
      "type": "function"
    },
    {
      "inputs": [
        {
          "internalType": "address",
          "name": "_token",
          "type": "address"
        },
        {
          "internalType": "uint256",
          "name": "_amount",
          "type": "uint256"
        }
      ],
      "name": "senseToken",
      "outputs": [],
      "stateMutability": "nonpayable",
      "type": "function"
    },
    {
      "inputs": [
        {
          "internalType": "address",
          "name": "newOwner",
          "type": "address"
        }
      ],
      "name": "transferOwnership",
      "outputs": [],
      "stateMutability": "nonpayable",
      "type": "function"
    },
    {
      "stateMutability": "payable",
      "type": "receive"
    }
  ],
  "transactionHash": "0x8d599e677f21277b0fb5692fb52ffc5b90b426b1d6a199bd9979d49bf47ba7c4",
  "args": [],
  "solcInputHash": "b187bdd07cda9ed32090191ab016012a",
  "bytecode": "0x6080604052600180546001600160a01b03191673bb4cdb9cbd36b01bd1cbaebf2de08d9173bc095c17905534801561003657600080fd5b5061004033610045565b610095565b600080546001600160a01b038381166001600160a01b0319831681178455604051919092169283917f8be0079c531659141344cd1fd0a4f28419497f9722a3daafe3b4186f6b6457e09190a35050565b611164806100a46000396000f3fe6080604052600436106100595760003560e01c806313544c5c146100655780635bfdd9f614610087578063715018a6146100a757806380e61379146100bc5780638da5cb5b146100dc578063f2fde38b1461010857600080fd5b3661006057005b600080fd5b34801561007157600080fd5b50610085610080366004610ef7565b610128565b005b34801561009357600080fd5b506100856100a2366004610dee565b61018f565b3480156100b357600080fd5b506100856101d1565b3480156100c857600080fd5b506100856100d7366004610f0f565b610207565b3480156100e857600080fd5b50600054604080516001600160a01b039092168252519081900360200190f35b34801561011457600080fd5b50610085610123366004610dd4565b6109e5565b6000546001600160a01b0316331461015b5760405162461bcd60e51b81526004016101529061107b565b60405180910390fd5b6040513390819083156108fc029084906000818181858888f1935050505015801561018a573d6000803e3d6000fd5b505050565b6000546001600160a01b031633146101b95760405162461bcd60e51b81526004016101529061107b565b6101cd6001600160a01b0383163383610a80565b5050565b6000546001600160a01b031633146101fb5760405162461bcd60e51b81526004016101529061107b565b6102056000610ad2565b565b6000546001600160a01b031633146102315760405162461bcd60e51b81526004016101529061107b565b600154429030906001600160a01b0316868660008161026057634e487b7160e01b600052603260045260246000fd5b90506020020160208101906102759190610dd4565b6001600160a01b031614156105b3576000888860008181106102a757634e487b7160e01b600052603260045260246000fd5b90506020020160208101906102bc9190610dd4565b6001600160a01b0316637ff36ab58b60008a8a87896040518763ffffffff1660e01b81526004016102f1959493929190611011565b6000604051808303818588803b15801561030a57600080fd5b505af115801561031e573d6000803e3d6000fd5b50505050506040513d6000823e601f3d908101601f191682016040526103479190810190610e17565b90506000816001835161035a91906110ee565b8151811061037857634e487b7160e01b600052603260045260246000fd5b60200260200101519050878760018181106103a357634e487b7160e01b600052603260045260246000fd5b90506020020160208101906103b89190610dd4565b6001600160a01b031663095ea7b38b8b60018181106103e757634e487b7160e01b600052603260045260246000fd5b90506020020160208101906103fc9190610dd4565b6040516001600160e01b031960e084901b1681526001600160a01b03909116600482015260248101849052604401602060405180830381600087803b15801561044457600080fd5b505af1158015610458573d6000803e3d6000fd5b505050506040513d601f19601f8201168201806040525081019061047c9190610ed7565b5060008a8a60018181106104a057634e487b7160e01b600052603260045260246000fd5b90506020020160208101906104b59190610dd4565b6001600160a01b03166318cbafe58360008a8a898b6040518763ffffffff1660e01b81526004016104eb969594939291906110b0565b600060405180830381600087803b15801561050557600080fd5b505af1158015610519573d6000803e3d6000fd5b505050506040513d6000823e601f3d908101601f191682016040526105419190810190610e17565b90508b816001835161055391906110ee565b8151811061057157634e487b7160e01b600052603260045260246000fd5b6020026020010151116105ab5760405162461bcd60e51b8152602060048201526002602482015261533160f01b6044820152606401610152565b5050506109da565b858560008181106105d457634e487b7160e01b600052603260045260246000fd5b90506020020160208101906105e99190610dd4565b6001600160a01b031663095ea7b38989600081811061061857634e487b7160e01b600052603260045260246000fd5b905060200201602081019061062d9190610dd4565b6040516001600160e01b031960e084901b1681526001600160a01b039091166004820152602481018c9052604401602060405180830381600087803b15801561067557600080fd5b505af1158015610689573d6000803e3d6000fd5b505050506040513d601f19601f820116820180604052508101906106ad9190610ed7565b506000888860008181106106d157634e487b7160e01b600052603260045260246000fd5b90506020020160208101906106e69190610dd4565b6001600160a01b03166338ed17398b60008a8a87896040518763ffffffff1660e01b815260040161071c969594939291906110b0565b600060405180830381600087803b15801561073657600080fd5b505af115801561074a573d6000803e3d6000fd5b505050506040513d6000823e601f3d908101601f191682016040526107729190810190610e17565b90506000816001835161078591906110ee565b815181106107a357634e487b7160e01b600052603260045260246000fd5b60200260200101519050878760018181106107ce57634e487b7160e01b600052603260045260246000fd5b90506020020160208101906107e39190610dd4565b6001600160a01b031663095ea7b38b8b600181811061081257634e487b7160e01b600052603260045260246000fd5b90506020020160208101906108279190610dd4565b6040516001600160e01b031960e084901b1681526001600160a01b03909116600482015260248101849052604401602060405180830381600087803b15801561086f57600080fd5b505af1158015610883573d6000803e3d6000fd5b505050506040513d601f19601f820116820180604052508101906108a79190610ed7565b5060008a8a60018181106108cb57634e487b7160e01b600052603260045260246000fd5b90506020020160208101906108e09190610dd4565b6001600160a01b03166338ed17398360008a8a898b6040518763ffffffff1660e01b8152600401610916969594939291906110b0565b600060405180830381600087803b15801561093057600080fd5b505af1158015610944573d6000803e3d6000fd5b505050506040513d6000823e601f3d908101601f1916820160405261096c9190810190610e17565b90508b816001835161097e91906110ee565b8151811061099c57634e487b7160e01b600052603260045260246000fd5b6020026020010151116109d65760405162461bcd60e51b8152602060048201526002602482015261299960f11b6044820152606401610152565b5050505b505050505050505050565b6000546001600160a01b03163314610a0f5760405162461bcd60e51b81526004016101529061107b565b6001600160a01b038116610a745760405162461bcd60e51b815260206004820152602660248201527f4f776e61626c653a206e6577206f776e657220697320746865207a65726f206160448201526564647265737360d01b6064820152608401610152565b610a7d81610ad2565b50565b604080516001600160a01b038416602482015260448082018490528251808303909101815260649091019091526020810180516001600160e01b031663a9059cbb60e01b17905261018a908490610b22565b600080546001600160a01b038381166001600160a01b0319831681178455604051919092169283917f8be0079c531659141344cd1fd0a4f28419497f9722a3daafe3b4186f6b6457e09190a35050565b6000610b77826040518060400160405280602081526020017f5361666545524332303a206c6f772d6c6576656c2063616c6c206661696c6564815250856001600160a01b0316610bf49092919063ffffffff16565b80519091501561018a5780806020019051810190610b959190610ed7565b61018a5760405162461bcd60e51b815260206004820152602a60248201527f5361666545524332303a204552433230206f7065726174696f6e20646964206e6044820152691bdd081cdd58d8d9595960b21b6064820152608401610152565b6060610c038484600085610c0d565b90505b9392505050565b606082471015610c6e5760405162461bcd60e51b815260206004820152602660248201527f416464726573733a20696e73756666696369656e742062616c616e636520666f6044820152651c8818d85b1b60d21b6064820152608401610152565b843b610cbc5760405162461bcd60e51b815260206004820152601d60248201527f416464726573733a2063616c6c20746f206e6f6e2d636f6e74726163740000006044820152606401610152565b600080866001600160a01b03168587604051610cd89190610ff5565b60006040518083038185875af1925050503d8060008114610d15576040519150601f19603f3d011682016040523d82523d6000602084013e610d1a565b606091505b5091509150610d2a828286610d35565b979650505050505050565b60608315610d44575081610c06565b825115610d545782518084602001fd5b8160405162461bcd60e51b81526004016101529190611048565b80356001600160a01b0381168114610d8557600080fd5b919050565b60008083601f840112610d9b578081fd5b50813567ffffffffffffffff811115610db2578182fd5b6020830191508360208260051b8501011115610dcd57600080fd5b9250929050565b600060208284031215610de5578081fd5b610c0682610d6e565b60008060408385031215610e00578081fd5b610e0983610d6e565b946020939093013593505050565b60006020808385031215610e29578182fd5b825167ffffffffffffffff80821115610e40578384fd5b818501915085601f830112610e53578384fd5b815181811115610e6557610e65611141565b8060051b604051601f19603f83011681018181108582111715610e8a57610e8a611141565b604052828152858101935084860182860187018a1015610ea8578788fd5b8795505b83861015610eca578051855260019590950194938601938601610eac565b5098975050505050505050565b600060208284031215610ee8578081fd5b81518015158114610c06578182fd5b600060208284031215610f08578081fd5b5035919050565b60008060008060008060006080888a031215610f29578283fd5b87359650602088013567ffffffffffffffff80821115610f47578485fd5b610f538b838c01610d8a565b909850965060408a0135915080821115610f6b578485fd5b610f778b838c01610d8a565b909650945060608a0135915080821115610f8f578384fd5b50610f9c8a828b01610d8a565b989b979a50959850939692959293505050565b81835260006020808501945082825b85811015610fea576001600160a01b03610fd783610d6e565b1687529582019590820190600101610fbe565b509495945050505050565b60008251611007818460208701611111565b9190910192915050565b85815260806020820152600061102b608083018688610faf565b6001600160a01b0394909416604083015250606001529392505050565b6020815260008251806020840152611067816040850160208701611111565b601f01601f19169190910160400192915050565b6020808252818101527f4f776e61626c653a2063616c6c6572206973206e6f7420746865206f776e6572604082015260600190565b86815285602082015260a0604082015260006110d060a083018688610faf565b6001600160a01b039490941660608301525060800152949350505050565b60008282101561110c57634e487b7160e01b81526011600452602481fd5b500390565b60005b8381101561112c578181015183820152602001611114565b8381111561113b576000848401525b50505050565b634e487b7160e01b600052604160045260246000fdfea164736f6c6343000804000a",
  "devdoc": {
    "kind": "dev",
    "methods": {
      "owner()": {
        "details": "Returns the address of the current owner."
      },
      "renounceOwnership()": {
        "details": "Leaves the contract without owner. It will not be possible to call `onlyOwner` functions anymore. Can only be called by the current owner. NOTE: Renouncing ownership will leave the contract without an owner, thereby removing any functionality that is only available to the owner."
      },
      "transferOwnership(address)": {
        "details": "Transfers ownership of the contract to a new account (`newOwner`). Can only be called by the current owner."
      }
    },
    "version": 1
  },
  "userdoc": {
    "kind": "user",
    "methods": {},
    "version": 1
  },
  "storageLayout": {
    "storage": [
      {
        "astId": 7,
        "contract": "contracts/Silverion.sol:Silverion",
        "label": "_owner",
        "offset": 0,
        "slot": "0",
        "type": "t_address"
      },
      {
        "astId": 2023,
        "contract": "contracts/Silverion.sol:Silverion",
        "label": "WBNB",
        "offset": 0,
        "slot": "1",
        "type": "t_address"
      }
    ],
    "types": {
      "t_address": {
        "encoding": "inplace",
        "label": "address",
        "numberOfBytes": "20"
      }
    }
  }
}